:020000040800F2
:1000000000200020551B00083504000837040008B4
:1000100000000000000000000000000000000000E0
:10002000000000000000000000000000390400088B
:1000300000000000000000003B0400083D04000830
:10004000A51B000800000000A51B0008A51B000858
:10005000A51B0008A51B0008A51B0008A51B000880
:1000600000000000A51B0008A51B0008A51B000838
:10007000A51B0008A51B0008A51B00080000000028
:10008000A51B0008A51B000800000000A51B000818
:10009000A51B0008A51B0008A51B0008A51B000840
:1000A000A51B0008A51B0008A51B000845040008A7
:1000B00055040008000000000000000000000000DF
:1000C00010B5064C2378002B07D1054B002B02D02E
:1000D000044800E000BF0123237010BD0C00002085
:1000E00000000000001C0008044B10B5002B03D0DA
:1000F0000349044800E000BF10BDC04600000000F6
:1001000010000020001C0008002243088B4274D31A
:1001100003098B425FD3030A8B4244D3030B8B4208
:1001200028D3030C8B420DD3FF22090212BA030C11
:100130008B4202D31212090265D0030B8B4219D3F2
:1001400000E0090AC30B8B4201D3CB03C01A524112
:10015000830B8B4201D38B03C01A5241430B8B425A
:1001600001D34B03C01A5241030B8B4201D30B0343
:10017000C01A5241C30A8B4201D3CB02C01A52416A
:10018000830A8B4201D38B02C01A5241430A8B422D
:1001900001D34B02C01A5241030A8B4201D30B0216
:1001A000C01A5241CDD2C3098B4201D3CB01C01A30
:1001B000524183098B4201D38B01C01A524143093A
:1001C0008B4201D34B01C01A524103098B4201D328
:1001D0000B01C01A5241C3088B4201D3CB00C01A95
:1001E000524183088B4201D38B00C01A524143080D
:1001F0008B4201D34B00C01A5241411A00D2014632
:10020000524110467047FFE701B5002000F006F8A4
:1002100002BDC0460029F7D076E770477047C04658
:1002200030B589B01422002103A801F0E1FC1D4B78
:10023000596980200003014359615A6902400092C4
:10024000009A59698020C003014359615A690240EC
:100250000192019A5A69802189020A435A615B69B5
:100260000B400293029B9025ED05002220212800DF
:1002700001F0C8FB80239B01039384239B03049319
:100280000024059403A9084801F0F6FA20230393FB
:100290001F3B04930594069403A9280001F0ECFA8F
:1002A00009B030BD001002400008004810B50368D6
:1002B0000F4A93420DD00F4A934211D001220E49AA
:1002C0000E4800F091FE01220D490E4800F08CFE10
:1002D00010BD0A23012208490A4800F039FDEDE764
:1002E0000A2301220649054800F032FDE6E7C04630
:1002F0000038014000440040290000202C0000206C
:1003000028000020B000002072B6FEE710B50B48B0
:100310000B4B036096239B01436000238360C36003
:1003200003610C2242618361C3610362436200F096
:10033000C9FD002800D110BDFFF7E6FF2C0000200A
:100340000038014010B50B480B4B036096239B010E
:10035000436000238360C36003610C2242618361B8
:10036000C3610362436200F0ADFD002800D110BDFF
:10037000FFF7CAFFB00000200044004000B595B070
:100380003022002108A801F033FC1022002104A82B
:1003900001F02EFC10220021684601F029FC022306
:1003A000089301220B920F320C921093A0239B030F
:1003B000129308A800F052FE002817D107230493D7
:1003C000053B0593002306930793012104A801F040
:1003D000CBF800280CD10123009300230293684638
:1003E00001F072F9002805D115B000BDFFF78CFFB0
:1003F000FFF78AFFFFF788FF10B501F01BFAFFF740
:10040000BDFFFFF70DFFFFF781FFFFF79BFF012205
:100410000449054800F0E8FD01220449044800F0C1
:10042000E3FDFEE7290000202C000020280000202A
:10043000B0000020FEE7FEE77047704710B501F0FE
:1004400009FA10BD10B5024800F0DCF810BDC04636
:100450002C00002010B5024800F0D4F810BDC046B2
:10046000B000002082B00A4B9969012211439961C2
:1004700099690A400092009ADA69802149050A4385
:10048000DA61DB690B400193019B02B07047C04603
:100490000010024010B58AB004001422002105A803
:1004A00001F0A6FB23682B4A934204D02A4A9342C8
:1004B0002BD00AB010BD294B99698020C00101439F
:1004C00099619A6902400192019A5A6980218902D0
:1004D0000A435A615B690B400293029BC023DB0015
:1004E00005930223069301330893023B099390205E
:1004F00005A9C00501F0C0F9002200211B2001F070
:10050000CFFA1B2001F0FCFAD3E7144BD969802203
:1005100092021143D961D969114003910399596934
:10052000114359615B691A400492049B0C230593A3
:100530000A3B0693013B0993902005A9C00501F0F1
:100540009BF9002200211C2001F0AAFA1C2001F0D6
:10055000D7FAAEE7003801400044004000100240E6
:1005600010B5EFF3108C012282F3108801680B683C
:10057000124C23400B608CF31088EFF3108C82F345
:10058000108801688B6893438B608CF31088036E2E
:10059000012B05D02023C36700230366436610BDEB
:1005A000EFF3108183F31088026813683234FF344C
:1005B000A343136081F31088ECE7C046DFFEFFFF22
:1005C000704710B5EFF31081012383F310880268A0
:1005D00013684024A343136081F3108820238367AA
:1005E00000238366FFF7ECFF10BD704710B5406A2B
:1005F00000235A228352083A8352FFF7F6FF10BDB8
:100600007047000070B504000268D36910689668EE
:10061000A4491D000D400B4203D1990601D5810666
:1006200018D4002D07D001210D003540314217D1DB
:100630009D49084214D1216E012900D193E01A0688
:1006400002D5020600D522E15B0602D5430600D59D
:1006500024E170BD636E002BFBD020009847F8E7C3
:10066000D90707D5C10505D5012616628021625834
:10067000324362509A0709D5002D07D02268022123
:1006800011627E3162580426324362505A0709D5FE
:10069000002D07D02268042111627C3162580226A5
:1006A000324362501A070AD5820601D4002D06D0C3
:1006B000226808251562802162582A4362501A0573
:1006C0000AD5420108D522688021090111628021E2
:1006D000625820252A4362508022A258002AB8D0AE
:1006E0009B0606D5830604D5636E002B01D020003F
:1006F00098478023E25823689B685B0602D428232E
:10070000134229D02000FFF72BFF23689B685B066C
:100710001ED5EFF31081012383F3108822689368BC
:1007200040208343936081F31088236F002B0BD00C
:100730005E4A5A63206F01F08DF9002800D188E7E6
:10074000206F436B984784E72000FFF74EFF80E758
:100750002000FFF74AFF7CE72000FFF746FF8023D9
:100760000022E25075E7D90600D468E7C10600D43C
:1007700065E71023136223689B685B064FD5226FE1
:1007800013685B689BB2002B00D162E75821615A65
:10079000994200D85DE75A2163529369202B09D111
:1007A0005823E15A0233E35AC91A89B22000FFF7ED
:1007B00027FF4EE7EFF31080012383F310882168B1
:1007C0000A683B4D2A400A6080F31088EFF31080DE
:1007D00083F3108821688A689A438A6080F31088BE
:1007E000EFF3108083F3108821688A684235FF3563
:1007F000AA438A6080F310882022E26700222266E2
:10080000EFF3108183F3108822681368102083436C
:10081000136081F31088206F01F0FAF8C0E75823C5
:10082000E15A0233E25A891A89B2E35A9BB2002B89
:1008300000D10EE7002900D10BE7EFF3108501236B
:1008400083F31088206802681A4E3240026085F3F4
:100850001088EFF3108583F31088206882689A432C
:10086000826085F310882022E26700222266626699
:10087000EFF3108083F31088226813681025AB43D0
:10088000136080F310882000FFF7BAFEE1E6A36E44
:10089000002B00D1DDE620009847DAE62000FFF7C4
:1008A00090FED6E60F08000020010004ED050008C8
:1008B000FFFEFFFFDFFEFFFF10B55C23C35AC26FD0
:1008C000222A05D00268936908210B43936110BD69
:1008D0000268928CDBB21340426D1370436D01339A
:1008E00043655A22835A013B9BB28352835A9BB27F
:1008F000002BECD1EFF3108C593A82F31088016889
:100900000B68184C23400B608CF31088EFF3108CAD
:1009100082F3108801688B6893438B608CF3108896
:100920002023C36700234366036E012B17D10023E6
:100930000366EFF31084013383F3108801680B68BA
:100940000F3293430B6084F310880368D9690A421D
:1009500000D01A625823C15AFFF752FEB7E7FFF7DB
:10096000A5FCB4E7DFFEFFFF10B55C23C25AC36FDE
:10097000222B05D00268936908210B43936110BDB7
:1009800003689B8C1340426D1380436D02334365B3
:100990005A22835A013B9BB28352835A9BB2002B4B
:1009A000EDD1EFF3108C593A82F3108801680B688F
:1009B000184C23400B608CF31088EFF3108C82F3FB
:1009C000108801688B6893438B608CF31088202318
:1009D000C36700234366036E012B17D10023036610
:1009E000EFF31084013383F3108801680B680F3232
:1009F00093430B6084F310880368D9690A4200D0DE
:100A00001A625823C15AFFF7FBFDB8E7FFF74EFC07
:100A1000B5E7C046DFFEFFFF10B50400836802693A
:100A2000134342691343C269134301680A6851487A
:100A3000024013430B60226853684F490B40E16842
:100A40000B435360226AA3691A4321688B684B48A1
:100A5000034013438B602368494A934223D0494A99
:100A6000934231D01023E06980221202904235D0A7
:100A7000042B00D176E064D8002B00D16BE0022B70
:100A80005DD1414863685B0818186168FFF73CFB5B
:100A90000004000C0200103A3C4B9A4267D82368CD
:100AA000D860002053E03A4B1A6B03231340022B0B
:100AB0000CD005D8002B0BD0012B0BD10333D2E780
:100AC000032B09D1013BCEE70023CCE70823CAE77B
:100AD0000023C8E71023C6E71023C4E7042B2BD05C
:100AE00020D8002B22D0022B1AD12748400063685F
:100AF0005B08C0186168FFF707FB83B20004000CB5
:100B000001001039214A91422FD80F2293431A0035
:100B100040080723184010432368D860002016E0DF
:100B2000012014E0082BE1D0012010E000F0BCFD12
:100B30000028DBD100200AE000F0DEFCF8E701200D
:100B400005E0082B02D1802000029BE70120002352
:100B50006366A36610BD00F0A7FD002800D091E7F2
:100B60000020F4E700F0C8FCF7E70120EFE70120E0
:100B7000EDE7C046F369FFFFFFCFFFFFFFF4FFFF84
:100B8000003801400044004000127A00EFFF0000EE
:100B900000100240436ADB0706D5026853682C49FF
:100BA0000B40816A0B435360436A9B0706D502687A
:100BB000536828490B40C16A0B435360436A5B0783
:100BC00006D50268536824490B40016B0B43536000
:100BD000436A1B0706D50268536820490B40416BE6
:100BE0000B435360436ADB0606D5026893681C49D1
:100BF0000B40816B0B439360436A9B0606D50268EA
:100C0000936818490B40C16B0B439360436A5B06C2
:100C10000BD50268536814490B40016C0B435360B9
:100C200080235B03026C9A420AD0436A1B0606D5F6
:100C3000026853680D490B40816C0B435360704749
:100C4000026853680A490B40416C0B435360ECE760
:100C5000FFFFFDFFFFFFFEFFFFFFFBFFFF7FFFFF2B
:100C6000FFEFFFFFFFDFFFFFFFFFEFFFFFFFF7FFDC
:100C7000FFFF9FFFF8B5CE46474680B506000D0042
:100C800017009946089B98463368DC692C40641B22
:100C900063425C41BC4253D143460133F4D000F07F
:100CA000E5FD4B46C01A40452CD84346002B29D0C1
:100CB00033681A685207E7D5DA691205E4D580224D
:100CC00012011A62EFF31080012282F3108831685A
:100CD0000B681E4C23400B6080F31088EFF31080EC
:100CE00082F3108831688B6893438B6080F310889F
:100CF0002023B367F3677F32B35054330022F2549A
:100D000003201EE0EFF31080012282F31088316887
:100D10000B680E4C23400B6080F31088EFF31080BB
:100D200082F3108831688B6893438B6080F310885E
:100D30002023B367F36754330022F254032000E00A
:100D40000020C0BCB946B046F8BDC0465FFEFFFFFC
:100D5000F0B5C64600B582B004000D0090461E00F6
:100D6000836F202B66D1002969D0002A69D08023A7
:100D70005B0182689A421ED07423E35C012B62D02F
:100D800074230122E2540C330022E2505F3BA3673C
:100D900000F06CFD070050234246E2520233E2525B
:100DA00080235B01A2689A420CD0002398467423EA
:100DB0000022E2541DE00369002BDDD1CB07DBD517
:100DC000012038E02369002B02D000239846EEE78B
:100DD000A8460025EBE743461B88DB05DB0D2268B0
:100DE000138502239C46E0445223E25A013A92B210
:100DF000E2525223E35A9BB2002B0FD000963B00E5
:100E0000002280212000FFF735FF00281DD1002D92
:100E1000E1D02B78226813850135E5E700963B0089
:100E2000002240212000FFF725FF00280FD12023BA
:100E3000A36700E0022002B080BCB846F0BD0120EC
:100E4000F9E70120F7E70220F5E70320F3E70320A5
:100E5000F1E7000030B583B0040080230022C250C7
:100E600000F004FD05002268126813070DD4236802
:100E70001B685B0716D42023A367E3670023236660
:100E80007422A354002003B030BD80210C4B00938A
:100E90000300002289032000FFF7ECFE0028E6D0C3
:100EA0000320F0E78021064B00932B000022C903AA
:100EB0002000FFF7DFFE0028DDD00320E3E7C04677
:100EC000FFFFFF0110B5041E2ED0836F002B21D031
:100ED0002423A3672268136801218B431360200039
:100EE000FFF79AFD012814D0636A002B18D12268FD
:100EF00053680E490B4053602268936808218B4366
:100F000093602268136807390B4313602000FFF7D2
:100F1000A1FF10BD74330022C254FFF7BBFAD7E71C
:100F20002000FFF737FEE2E70120F2E7FFF7FFFFBF
:100F300041655823C2520233C2520023436683687C
:100F400080225201934208D0002B15D10369002B57
:100F50000ED15C33FF22C25211E00369002B03D192
:100F60005C331E4AC2520AE05C23FF22C25206E0F2
:100F70005C237F22C25202E05C230022C252802303
:100F80000022C2505E3BC367EFF3108C012181F356
:100F90001088026893680B4393608CF31088802359
:100FA0005B0182689A4213D00D4B43667423002282
:100FB000C254EFF31081733B83F31088026810680A
:100FC0002033FF330343136081F310880020704700
:100FD0000369002BE8D1034B4366E7E7FF010000FC
:100FE000B90800086909000870B5C36F202B2CD11F
:100FF00000292CD0002A2CD080235B0184689C42DD
:101000001CD07423C35C012B25D074230124C45449
:101010000023036603685B681B020CD5EFF3108C9A
:10102000012383F31088046825688023DB042B43A5
:1010300023608CF31088FFF77BFF07E00369002B28
:10104000DFD1CB07DDD5012000E0022070BD0120FB
:10105000FCE70120FAE70220F8E7000070B582B053
:10106000041E00D12EE20368DB0726D5AE4B5A687A
:101070000C231340042B18D0AB4B5A680C2313409D
:10108000082B0ED06368012B3CD0002B51D1A64B0E
:101090001A68A6490A401A601A68A5490A401A60E7
:1010A00036E0A14B5B68DB03ECD59F4B1B689B03D1
:1010B00003D56368002B00D107E223689B0772D534
:1010C000994B5B680C221A425DD0974B5A680C23EF
:1010D0001340082B53D0E368002B00D185E0924ADF
:1010E000136801210B43136000F0C0FB05008E4B19
:1010F0001B689B0770D400F0B9FB401B0228F6D98F
:101100000320E0E1884A116880235B020B431360EF
:101110006368002B25D000F0A9FB0500824B1B68FB
:101120009B03CAD400F0A2FB401B6428F6D903201D
:10113000C9E1052B09D07C4B1A687C490A401A602A
:101140001A687B490A401A60E2E7774B19688022E7
:10115000D2020A431A601968802252020A431A60B6
:10116000D6E700F083FB05006F4B1B689B03A4D5FB
:1011700000F07CFB401B6428F6D90320A3E16A4BF6
:101180005B68DB03A7D4684B1B689B0703D5E36848
:10119000012B00D09BE164490B68F822934322693C
:1011A000D20013430B6023681B0744D5E369002B6F
:1011B0002ED05D4A536A01210B43536200F056FB67
:1011C0000500594B5B6A9B0735D400F04FFB401B71
:1011D0000228F6D9032076E153490B68F82293439D
:1011E0002269D20013430B60DDE74F4A13680121E7
:1011F0008B43136000F03AFB05004B4B1B689B07C9
:10120000D1D500F033FB401B0228F6D903205AE168
:10121000454A536A01218B43536200F027FB0500C6
:10122000414B5B6A9B0706D500F020FB401B022860
:10123000F6D9032047E123685B0700D480E03A4BEE
:10124000DB69DB001DD4384AD169802040050143A9
:10125000D161D36903400193019B0125354B1B6884
:10126000DB0510D5A368012B21D0002B36D12E4BE6
:101270001A6A01218A431A621A6A03318A431A627E
:101280001AE00025EAE72B4A116880235B000B4334
:10129000136000F0EBFA0600264B1B68DB05E1D477
:1012A00000F0E4FA801B6428F6D903200BE11E4A03
:1012B000136A01210B431362A368002B24D000F0B2
:1012C000D5FA0600184B1B6A9B0737D400F0CEFAFC
:1012D000801B194B9842F5D90320F4E0052B09D067
:1012E000114B1A6A01218A431A621A6A03318A432E
:1012F0001A62E1E70C4B1A6A04210A431A621A6A5D
:1013000003390A431A62D7E700F0B0FA0600064B29
:101310001B6A9B0712D500F0A9FA801B064B984266
:10132000F5D90320CFE0C04600100240FFFFFEFFCA
:10133000FFFFFBFF0070004088130000012D33D039
:101340002368DB0610D56369012B33D0053351D1F7
:10135000654A536B04218B435363536BF4318B43C6
:10136000A169C9000B435363236A002B00D1B0E08D
:101370005D4A51680C220A40082A00D18AE0022BFB
:101380004FD0594A136859490B40136000F06EFA68
:101390000400554B1B689B017AD500F067FA001BCF
:1013A0000228F6D903208EE04F4AD36950490B40FA
:1013B000D361C5E74C4B5A6B04210A435A635A6BFD
:1013C00003390A435A6300F051FA0500464B5B6B40
:1013D0009B0706D400F04AFA401B0228F6D90320E6
:1013E00071E041494B6BF8229343A269D200134349
:1013F0004B63B9E73C4B5A6B04210A435A635A6B5F
:1014000003398A435A6300F031FA0500364B5B6BAF
:101410009B07A9D500F02AFA401B0228F6D9032021
:1014200051E0314A136831490B40136000F01EFA55
:1014300005002D4B1B689B0106D500F017FA401BD9
:101440000228F6D903203EE0274BDA6A0F218A43AF
:10145000E16A0A43DA625A6826490A40A16A606A68
:1014600001430A435A601968802252040A431A60F1
:1014700000F0FCF904001C4B1B689B0106D400F033
:10148000F5F9001B0228F6D903201CE000201AE021
:10149000002018E0012B1ED0134B5A68D96A802314
:1014A0005B021340606A834217D10F230B40E16A4D
:1014B0008B4214D1F0239B031A40A36A9A4210D1A5
:1014C000002000E0012002B070BD0120FBE70120F8
:1014D000F9E70020F7E70120F5E70120F3E7012015
:1014E000F1E70120EFE7C04600100240FFFFFFFEDA
:1014F000FFFFFFEFFFFFC2FF10B588B004AA164B35
:1015000013CB13C21B6813606A46144B13CB13C270
:101510001B681360124B5A680C231340082B02D02F
:10152000104808B010BD910C0733194004A8445C62
:101530000B49C96A0B406946C95CD30304D5094805
:10154000FEF7E2FD6043ECE763011B1B9801C01A44
:10155000C00000190002E4E7181C00082C1C000859
:101560000010024000127A0070B504000D0000283F
:1015700000D17EE0434B1A68012313408B420AD20C
:1015800040490B68012293432B430B600B681A40C0
:10159000AA4200D06FE023689A070ED55B0705D5F5
:1015A000394A5168E023DB000B435360364A5368E5
:1015B000F0218B43A1680B4353602368DB072DD5D3
:1015C0006368012B1ED0022B22D02F4A126892078B
:1015D00053D52D494A680320824313434B6000F0E2
:1015E00045F90600284B5B680C221A4063689B0093
:1015F0009A4213D000F03AF9801B244B9842F1D95B
:10160000032035E0204A12689203E2D401202FE043
:101610001D4A12689201DCD4012029E0194B1A6896
:1016200001231340AB4209D916490B6801229343A9
:101630002B430B600B681A40AA4220D123685B073A
:1016400006D5114A536812490B40E1680B435360B9
:10165000FFF752FF0C4B5A6812090F2313400D4A33
:10166000D35CD8400C4B1860002000F0BBF8002081
:1016700070BD0120FCE70120FAE70120F8E7012016
:10168000F6E7C04600200240001002408813000028
:10169000FFF8FFFF401C000808000020014B1868FD
:1016A0007047C0460800002010B5FFF7F7FF044B55
:1016B0005A68120A07231340024AD35CD84010BD6F
:1016C00000100240501C000870B582B0040003688E
:1016D000DB0337D53D4BDB69DB0049D43B4AD1699D
:1016E000802040050143D161D36903400193019BF0
:1016F0000125374B1B68DB053CD5344B1A6AC023E8
:101700009B00110019401A4213D0626813408B42AB
:101710000FD02E4B186A2F4A02401E6A80214902C0
:1017200031431962196A2C4E314019621A62C3079B
:1017300034D4264A136A27490B4061680B4313626D
:10174000012D3AD02368DB0706D5204A136B03210D
:101750008B43A1680B43136323689B0632D51B4A56
:10176000136B10218B43E1680B43136300202AE0C5
:101770000025BEE7164A116880235B000B43136007
:1017800000F074F80600124B1B68DB05B5D400F0BE
:101790006DF8801B6428F6D9032014E000F066F889
:1017A00006000A4B1B6A9B07C3D400F05FF8801B3E
:1017B0000A4B9842F5D9032005E0D36908490B404C
:1017C000D361BFE7002002B070BDC04600100240E8
:1017D00000700040FFFCFFFFFFFFFEFF88130000CA
:1017E000FFFFFFEF10B504000F4B1978FA208000BF
:1017F000FEF78AFC01000D4B1868FEF785FC00F02F
:101800008BF900280DD1032C01D901200AE0013009
:1018100000222100404200F043F9054B1C600020EB
:1018200000E0012010BDC04600000020080000209C
:101830000400002010B5064A136810210B43136002
:101840000020FFF7CFFFFEF70DFE002010BDC046C1
:1018500000200240034A1168034B1B785B18136099
:101860007047C0463401002000000020014B18687A
:101870007047C04634010020F0B583B0002357E024
:1018800084685F000326BE40B4432600CC68BC4099
:1018900034438460446894434A6816090122324004
:1018A0009A402243426053E0DC080834A4002658E2
:1018B00005321A4092000F279740BE430F699740A8
:1018C0003A003243225057E0032600E00026A640AB
:1018D00034003C4302329200444E9451444A14680E
:1018E000EA432600AE434F68FF0301D52C43260090
:1018F0003F4C26606468260016404F68BF0301D540
:101900002C4326003A4C6660A468260016404F68B7
:10191000FF0201D52C432600354CA660E468224026
:101920004E68B60201D52A002243314CE2600133F1
:101930000C682200DA4057D001229A402500154059
:101940001442F4D003244E683440013C012C97D952
:1019500003224C682240032A09D0C2685E00032497
:10196000B440A24314008A68B2402243C2600322FA
:101970004C682240022A97D004685E0003221700B8
:10198000B740BC434F683A40B24022430260C02295
:1019900092024C681442CAD0164CA6690122164322
:1019A000A661A46922400192019A9A08941CA4009D
:1019B0000E4EA75903241C40A4000F26A640B7438F
:1019C0009026F605B04281D00B4EB04208D00B4EA7
:1019D000B04207D00A4EB04200D175E7052676E73F
:1019E000012674E7022672E703B0F0BD0000014053
:1019F00000040140001002400004004800080048B4
:101A0000000C0048002A01D0816170478162FCE728
:101A100010B52123C35C022B06D0042383631C333F
:101A20000022C254012010BD026813680E218B43AE
:101A3000136001680A6801239A430A60C26B1900A7
:101A4000046CA1405160212283541F330022C254F0
:101A50000020E8E710B52123C35C022B03D0042348
:101A60008363012010BD026813680E218B4313604D
:101A700001680A6801239A430A60C26B1900046C6A
:101A8000A1405160212283541F330022C254436B72
:101A9000002B02D098470020E4E70020E2E7000096
:101AA00070B5002811DB8308134EC0339B009D598D
:101AB00003242040C000FF2214008440A543890174
:101AC0000A4082402A439A5170BD0F230340083BCD
:101AD0009B0806339B00094A944663445C680322D2
:101AE0001040C000FC3215008540AC4389010A401B
:101AF000824022435A60E7E700E100E000ED00E0A9
:101B0000002805DB1F2318401E3B8340014A136059
:101B10007047C04600E100E0013880235B04984232
:101B20000FD2094A50600948036A1B021B0AC021F0
:101B300009060B4303620023936007331360002000
:101B400070470120FCE7C04610E000E000ED00E037
:101B5000704700000D4885460D480E490E4A002387
:101B600002E0D458C4500433C4188C42F9D30B4A51
:101B70000B4C002301E013600432A242FBD3FFF7B9
:101B8000E7FF00F011F8FEF737FCFEE70020002029
:101B9000000000200C000020601C00080C00002049
:101BA00038010020FEE7000070B500260C4D0D4CFA
:101BB000641BA410A64209D1002600F021F80A4DAA
:101BC0000A4C641BA410A64205D170BDB300EB58AB
:101BD00098470136EEE7B300EB5898470136F2E735
:101BE000581C0008581C0008581C00085C1C000801
:101BF00003008218934200D1704719700133F9E74E
:101C0000F8B5C046F8BC08BC9E467047F8B5C0465B
:081C1000F8BC08BC9E467047B9
:101C180002030405060708090A0B0C0D0E0F101025
:101C2800000000000102030405060708090A0B0C5E
:101C38000D0E0F1000000000000000000000000062
:101C4800010203040607080900000000010203045A
:041C5800E900000897
:041C5C00C1000008BB
:0C1C6000010000000400000000127A00E7
:0400000508001B557F
:00000001FF
